:020000040800F2
:100000002810002005010008B1090008A90900080E
:10001000AD090008A7070008B50D000800000000A2
:10002000000000000000000000000000A90A000815
:10003000AB07000800000000B3090008950B00089A
:100040001F0100081F0100081F0100081F01000810
:100050001F0100081F0100081F0100081F01000800
:100060001F0100081F0100081F0100081F010008F0
:100070001F0100081F0100081F0100081F010008E0
:100080001F0100081F0100081F0100081F010008D0
:100090001F0100081F0100081F0100081F010008C0
:1000A0001F0100081F0100081F0100081F010008B0
:1000B0001F0100081F0100081F0100081F010008A0
:1000C0001F0100081F0100081F0100081F01000890
:1000D0001F0100081F0100081F0100081F01000880
:1000E0001F0100081F0100081F010008DFF810D0E1
:1000F00000F030FB0048004719150008AFF30080FE
:10010000281000200648804706480047FEE7FEE723
:10011000FEE7FEE7FEE7FEE7FEE7FEE7FEE7FEE7B7
:10012000AD0B0008ED000008D2B201E000F8012B91
:10013000491EFBD270470022F6E710B513460A4667
:1001400004461946FFF7F0FF204610BD80EA010281
:1001500010B502F00043400022D04A001FD0010E2B
:1001600001EB1261C0F35600C2F3560240F40000E6
:1001700042F40002A0FB022000047F39140400D0E6
:10018000401C50EA124001D44000491EC2B20C0685
:1001900004EBD010401C4008802A02D003E000206D
:1001A00010BD20F00100002900DA0020184310BD26
:1001B0002DE9FE4F804681EA0300C00F0C460090F7
:1001C00021F0004123F00045B8EB0200A94105D21F
:1001D0004046214690461C460B46024623F000400E
:1001E000104347D0270DC7F30A00C3F30A5102900A
:1001F000401A019040286BDAC3F3130040F4801BCF
:100200000098924620B10023D2EB030A63EB0B0B5C
:1002100001985946C0F14002504600F0D6F9064612
:100220000D4650465946019A00F0EEF910EB0800D1
:100230006141002487EA115284EAE7731A4340D0EF
:10024000009A62B3019A012A4FEA075215DC001B9B
:1002500061EB02014FF0004202EA0752CDE9004291
:10026000001C41F5801132462B4600F025FA03B000
:10027000BDE8F08F40462146F9E7001B61EB020123
:10028000001C41F5801300185B412018A2F50017EF
:1002900047EB030140EAD570B6196D4111E06D08D6
:1002A0004FEA360645EAC0754FEA0752001B61EB7C
:1002B0000201001C41F5801149084FEA3000001985
:1002C000514132462B4603B0BDE8F04F00F0E5B98E
:1002D0000098012240000023D0EB020263EBE073A0
:1002E000009821464FEAE074B8EB000061EB04018E
:1002F000E9E783F000435BE781F0004158E72DE92F
:10030000FE4F81EA030404F0004421F00041009410
:100310004FF0000B23F0004350EA01045ED052EA94
:1003200003045BD0C3F30A54C1F30A552C44A4F26E
:10033000F3340194A0FB0254C1F3130141F4801182
:10034000C3F3130343F4801301FB024400FB034E89
:10035000840A970A44EA815447EA8357A4FB076852
:1003600002958D0A05FB07854FEA932C04FB0C547C
:100370002705029D4FEA065847EA1637B5EB0805F0
:100380006EEB070C870E920E47EA811742EA831242
:10039000A7FB0201B6EB0B0164EB00042B0D43EA53
:1003A0000C335E1844EB1C50DA465146E7FB020161
:1003B000C5F313044FEA0B3343EA14534FEA0432F4
:1003C000019C43EA0603A4F10C040294009CCDE9CD
:1003D00000B400F071F903B0BDE8F08F00200146D1
:1003E000F9E72DE9F04D81EA030404F0004B21F018
:1003F000004514464FF0000A23F0004150EA050280
:1004000020D054EA01021DD0C5F30A570246C5F3B5
:100410001303C1F31300C1F30A5640F4801543F4EB
:100420008013A7EB0608101BD64608F2FD3873EBC5
:10043000050002D308F1010801E092185B41B8F110
:10044000000F03DA00200146BDE8F08D00204FF4D4
:100450008011064684460EE0171B73EB050705D393
:10046000121B63EB050306434CEA010C49084FEAF3
:10047000300092185B4150EA0107EDD152EA0300C7
:1004800012D082EA040083EA0501084305D0101B5C
:10049000AB4106D20122002306E000224FF00043C8
:1004A00002E06FF0010253101AEB06004CEB08510A
:1004B00010EB0A0041EB0B01BDE8F04D00F0EDB888
:1004C00096230022114600F0BAB80EB5C10F80EA9B
:1004D000E0700844CA07002140F233438DE80E0063
:1004E0000A460B4600F0E8F803B000BD0EB540F236
:1004F000334102910021CDE900110A460B4600F07C
:10050000DBF803B000BD20F00040C10DC0F31600C1
:1005100040F400007F2901DA00207047962903DCAF
:10052000C1F19601C840704796398840704770B550
:10053000C1F30A5201F000450024C1F3130140F257
:10054000FF3341F480119A4201DA002070BD40F27D
:1005500033439A42A2F2334203DC524200F044F8A1
:1005600000E090402C43F1D0404270BD00F00042CA
:1005700030F000400AD0C10D01F56071C0F31600E3
:1005800042EA0151C208400711437047002001466A
:10059000704701F0004330B421F0004150EA0102FD
:1005A00006D00A0DA2F56072C1F31301002A02DC25
:1005B00030BC00207047440F44EAC104C100E01879
:1005C00030BC00EBC25000F031B8202A04DB203AE6
:1005D00000FA02F1002070479140C2F1200320FA96
:1005E00003F3194390407047202A04DB203A21FA94
:1005F00002F00021704721FA02F3D040C2F120023C
:100600009140084319467047202A06DBCB17203A51
:1006100041FA02F043EAE07306E041FA02F3D04007
:10062000C2F1200291400843194670470029A8BF33
:100630007047401C490008BF20F00100704710B40B
:10064000B0FA80FC00FA0CF050EA010404BF10BCC0
:10065000704749B1CCF1200421FA04F411FA0CF1ED
:1006600018BF012121430843A3EB0C01CB1D4FEA26
:1006700000614FEA102042BF002010BC704700EB21
:10068000C35010440029A4BF10BC7047401C49004F
:1006900008BF20F0010010BC704710B5141E73F1A4
:1006A000000408DA401C41F1000192185B411A4332
:1006B00001D120F0010010BD2DE9F04D92469B467E
:1006C00011B1B1FA81F202E0B0FA80F22032904624
:1006D000FFF77BFF04460F4640EA0A0041EA0B01A0
:1006E00053465A46084313D0114653EA010019D025
:1006F000C8F140025046FFF777FF05460E465046C8
:1007000059464246FFF761FF084305D0012004E047
:1007100020463946BDE8F08D0020054346EAE076E4
:100720002C4337430A986305E40AA0EB0800002233
:10073000FD0A44EA47540A3002D500200146E9E7A1
:10074000010510196941DDE9084500196941BDE855
:10075000F04DA2E7064C074D06E0E06840F00103CB
:1007600094E8070098471034AC42F6D3FFF7C2FC78
:10077000681700088817000870B521F0004303438C
:100780000CD0C1F30A550024D5EB040564EB040337
:10079000D617AD1AB34102DB0020014670BD201808
:1007A00041EB025170BD00BFFEE770472DE9F041FB
:1007B00086B02E480078002855D101202B490870BA
:1007C000142101A8FFF7B7FC4FF0E020006920F0EA
:1007D00001004FF0E021086100202549086001A8D0
:1007E00000F0F8F84FF0E020006940F002004FF010
:1007F000E021086100211F48C1774FF47A71029807
:10080000B0FBF1F4B4F1807F09D3E4084FF0E020AD
:10081000006920F004004FF0E021086107E04FF08C
:10082000E020006940F004004FF0E0210861601E04
:100830004FF0E02148610846006940F0010008617E
:10084000496921F07F41481CFFF750FE07463A46B0
:100850000B4600200849FFF7C4FD0546FFF799FE47
:100860000649086000BF06B0BDE8F081180000200E
:100870001400002000ED00E000408F401C0000202C
:100880002DE9F04102460025002600200023002427
:10089000002791F803C00CF00F0591F803C00CF08D
:1008A000100CBCF1000F03D091F802C04CEA050512
:1008B00091F800C0BCF1000F31D0146800202BE08B
:1008C0004FF0010C0CFA00F3B1F800C00CEA03067B
:1008D0009E4220D183004FF00F0C0CFA03F7BC436B
:1008E00005FA03FC4CEA040491F803C0BCF1280F9C
:1008F00006D14FF0010C0CFA00FCC2F814C00AE05B
:1009000091F803C0BCF1480F05D14FF0010C0CFA6F
:1009100000FCC2F810C0401C0828D1D31460B1F804
:1009200000C0BCF1FF0F34DD546800202EE000F160
:10093000080C4FF0010808FA0CF3B1F800C00CEAFB
:1009400003069E4221D183004FF00F0C0CFA03F7EF
:10095000BC4305FA03FC4CEA040491F803C0BCF163
:10096000280F05D100F1080C08FA0CF8C2F8148021
:1009700091F803C0BCF1480F07D100F1080C4FF00B
:10098000010808FA0CF8C2F81080401C0828CED3E1
:100990005460BDE8F081000010B5FFF707FF014883
:1009A000006810BD1400002000BFFEE700BFFEE796
:1009B0007047704729B1064A92690243044B9A6115
:1009C00004E0034A92698243014B9A617047000038
:1009D0000010024030B500210022002400232D4DDC
:1009E0006D6805F00C0121B1042905D0082923D137
:1009F00005E0294D056022E0274D05601FE0254DEB
:100A00006D6805F47012234D6D6805F4803402257D
:100A100005EB92421CB9214D554305600BE01D4D7D
:100A20006D6805F400351DB11C4D5543056002E0AD
:100A3000194D5543056002E0174D056000BF00BF2A
:100A4000144D6D6805F0F0010909154D6B5C0568E2
:100A5000DD4045600F4D6D6805F4E061090A104DF9
:100A60006B5C4568DD4085600A4D6D6805F460513A
:100A7000C90A0B4D6B5C4568DD40C560054D6D686E
:100A800005F44041890B074D6B5CC568B5FBF3F578
:100A9000056130BD0010024000127A0000093D00DF
:100AA0000000002010000020704710B500F002F890
:100AB00010BD00000CB50020019000903348006884
:100AC00040F480303149086000BF3048006800F4CD
:100AD000003000900198401C0190009818B90198CE
:100AE000B0F5A06FF1D12948006800F4003010B1D2
:100AF0000120009001E0002000900098012843D1DF
:100B00002348006840F0100021490860084600684A
:100B100020F0070008600846006840F00200086006
:100B20001A484068194948600846406848600846C5
:100B3000406840F4806048600846406820F47C10BB
:100B400048600846406840F4E8104860084600687D
:100B500040F08070086000BF0C48006800F0007032
:100B60000028F9D00948406820F003000749486090
:100B70000846406840F00200486000BF03484068F3
:100B800000F00C000828F9D10CBD00000010024054
:100B9000002002400448036840685A1C40F10000ED
:100BA00001490A60486070471400002010B51348DE
:100BB000006840F00100114908600846406810498B
:100BC00008400E494860084600680E4908400B4935
:100BD00008600846006820F48020086008464068E5
:100BE00020F4FE0048604FF41F008860FFF75DFFAF
:100BF0004FF000600449086010BD00000010024082
:100C00000000FFF8FFFFF6FE08ED00E021B10288CA
:100C100042F08002028004E002884FF67F731A409F
:100C20000280704721B1828842F00102828004E094
:100C300082884FF6FE731A408280704721B1028885
:100C400042F00102028004E002884FF6FE731A406F
:100C50000280704731B1B0F8442042F40042A0F85D
:100C6000442005E0B0F84420C2F30E02A0F844206E
:100C70007047000070B5002400220023058C4FF659
:100C8000FE7635400584028C8388048B4FF68F7581
:100C90002C40B51E2C400D882C43751E2A400D8912
:100CA0002A434D882A43144DA8420BD0134DA84225
:100CB00008D0134DA84205D0124DA84202D0124DC3
:100CC000A84213D14FF6F7752A404D892A434FF6B3
:100CD000FB752A408D882A434FF6FF652B404FF65F
:100CE000FF552B408D892B43CD892B438380048373
:100CF000CD888586028470BD002C014000340140FF
:100D00000040014000440140004801408186704796
:100D1000002202881D4B98420ED01D4B98420BD0EA
:100D2000B0F1804F08D01B4B984205D01A4B984227
:100D300002D01A4B984204D14FF68F731A404B8859
:100D40001A43174B984207D0164B984204D04FF6DF
:100D5000FF431A40CB881A4302808B8883850B8817
:100D600003850A4B98420BD0094B984208D00E4B92
:100D7000984205D00D4B984202D00D4B984201D1BC
:100D80000B7A03860123838270470000002C014008
:100D9000003401400004004000080040000C004006
:100DA0000010004000140040004001400044014099
:100DB0000048014000BFFEE7490050EAC12018BFCB
:100DC00004204A0D18BF40F0010040F2FF72B2EB60
:100DD000515F08BF40F00200012808BF052070479E
:100DE0002DE9F74F144694B00021C4E9021115997A
:100DF000079121F00045C9498D4206DC1599C4E9E7
:100E0000000117B00020BDE8F08FC549DFF814A33A
:100E1000A9423CDD0799C44E0029C44FC44A159924
:100E2000534619DDFFF765FA554506D0C14AC24B56
:100E3000FFF75FFAC4E900010AE04FF0D352BE4B5E
:100E4000FFF757FA32463B46FFF753FAC4E9000171
:100E500017B00120BDE8F08FFFF7AAF9554506D07D
:100E6000B44AB54BFFF7A4F9C4E900010AE04FF01A
:100E7000D352B14BFFF79CF932463B46FFF798F946
:100E8000C4E9000117B04FF0FF30BDE8F08FAB4967
:100E9000A942159978DB21F0004183468846A84A8B
:100EA000A84BFFF72CFA0022A74BFFF781F9FFF7B9
:100EB0003EFB0990FFF709FB06460F469C4A534646
:100EC000FFF71DFA43465A46FFF716FA80468A4650
:100ED000984A994B30463946FFF711FA2A0D0125F9
:100EE0000B9242465346FFF707FA032DC4E900016F
:100EF00039D00B98C1F30A51401A05EB451111394D
:100F0000814230DA9148C346784400EB0510CDF8B1
:100F10000CA00C90D0E9002330463946FFF7EFF9DA
:100F200002460B460491069058460399FFF7E1F9F3
:100F300080468A4602460B4658460399FFF7D9F980
:100F4000049B069AFFF7D5F983460C98039139461E
:100F5000D0E902233046FFF7D2F95A46039BFFF748
:100F6000C8F96D1CBDE707980028A2BF099817B003
:100F7000BDE8F08F616881F000416160099817B0A9
:100F80004042BDE8F08FFFE784461598C1F3130196
:100F9000C0F30A50A0F2F5304FEA601800F01F06C7
:100FA000C6F12000139000200690079041F4801EA7
:100FB00005206D4676B1664A08EB00017A4452F886
:100FC000213002EB8101B3404A68139922FA01F102
:100FD000194305E05F4908EB0002794451F82210FB
:100FE000A1FB0E27A1FB0C131A449A4234BF012324
:100FF000002303EB070A05EB8003D3E901B70F4495
:101000008F4234BF0121002193448B4411B1934599
:1010100002D903E0934501D2012100E00021C3E998
:1010200001B7514445F82010011EA0F10100C1DCB8
:101030000298059F00F10050800F12900298DDE9A0
:1010400003568000FFF741FA834628460D91FFF7CB
:101050004DFA6FF01D02FFF78FFBCDE90E01304610
:10106000FFF744FA6FF03D02FFF786FB80468A46A1
:101070003846FFF73BFA6FF05D02FFF77DFB07464E
:10108000424653461191FFF793F8DDE90E23FFF72F
:101090008FF85A460D9BFFF78BF800250E465A46EF
:1010A00028460D9BFFF725F9DDE90E23FFF721F90F
:1010B00042465346FFF71DF93A46119BFFF71CF9CC
:1010C000DFF898A0244A5346FFF719F907468846E7
:1010D000234A244B31462846FFF711F93A46434646
:1010E000FFF766F8074688464FF0A8425346314658
:1010F0002846FFF704F93A464346FFF759F8159A90
:1011000012F0004F04D0129A81F000415242129224
:10111000C4E90001129817B0BDE8F08FFB21E93F48
:101120007CD90240FB21F93F7370032E8A19A33B3F
:10113000000040543163621A61B4D03DFB21394153
:1011400083C8C96D305FE43F0000E03F6C070000DA
:10115000E8060000CA060000182D4454FB21F93DA2
:101160003326A611460B113C2DE9FF4D21F0004816
:1011700007460C46B8F1795F08DAFFF7D8F900287E
:1011800001BF0020324904B0BDE8F08D3A46234645
:1011900010461946FFF7B3F8054602462D480E469D
:1011A0000B460621784400F05DF82A463346FFF7E7
:1011B000A6F8DDE9022382468B4638462146FFF732
:1011C0009EF804460F4652465B4628463146FFF7D6
:1011D00096F822463B46FFF78CF807468A464FF0C2
:1011E000FF3228463146FFF7C7FA1B4A90450ADA14
:1011F0003A465346FFF77DF804B00022BDE8F04DB3
:10120000134BFFF779B8154A4245A8BFA8F500155A
:101210004FF00004B8BF124D22462B46FFF769F885
:101220000646884622462B4600200949FFF761F80A
:1012300004460D463A46534630464146FFF759F8B4
:1012400004B022462B46BDE8F04DFFF755B800002C
:101250000000F03FA00400003333D33F0000E93F1B
:101260000000D23F2DE9F0414F1E00EBC7010446BC
:10127000D1E9000115461E4637F006020DD02A4678
:101280003346FFF73CF87F1E04EBC703D3E9002386
:10129000FEF78EFF37F00602F1D1022F25D0042F82
:1012A00013D0062F18BFBDE8F0812A463346FFF75A
:1012B00026F8D4E90A23FEF77BFF2A463346FFF7D8
:1012C0001EF8D4E90823FEF773FF2A463346FFF7DA
:1012D00016F8D4E90623FEF76BFF2A463346FFF7DC
:1012E0000EF8D4E90423FEF763FF2A463346FFF7DE
:1012F00006F8D4E90223FEF75BFF2A463346FEF7E1
:10130000FEFFD4E90023BDE8F041FEF751BF000025
:101310002DE9FF4D054621F0004084B00C46B0F1A8
:10132000795F0BDA2846FFF747FD042808BF00F075
:101330006FF8284608B02146BDE8F08D2A460B46D6
:101340001046FEF7DCFF06460F462A462346FEF708
:10135000D6FF804626488A4632463B4605217844D9
:10136000FFF780FF83461098029160B3214A224B19
:1013700040465146FEF7C3FFCDE900015A464046BC
:101380005146029BFEF7BBFF82468846DDE9060117
:101390004FF0FF32FFF7F0F952464346FEF7A9FF40
:1013A00032463B46FEF7ABFFDDE90623FEF7A1FF21
:1013B000DDE90023FEF79DFF08B02A462346BDE87D
:1013C000F04DFEF799BF0B465A4630463946FEF7B8
:1013D00096FF084A084BFEF7EBFE42465346FEF7DF
:1013E0008EFF08B02A462346BDE8F04DFEF7E0BE6A
:1013F000DE030000495555555555C5BF0122FFF77D
:10140000BBB90022134610461146FEF7EABF0000A2
:10141000024A00201107FFF7AFB9000001FDFFFFEE
:1014200002E008C8121F08C1002AFAD170477047AD
:10143000002001E001C1121F002AFBD1704700000B
:1014400001490860704700002000002000B589B005
:1014500001210420FFF7AEFA4FF48070ADF82000B0
:1014600018208DF8230002208DF8220008A92748B3
:10147000FFF706FA01210820FFF79CFA4FF400500D
:10148000ADF8200018208DF8230002208DF82200EE
:1014900008A91F48FFF7F4F90121C802FFF78AFAEB
:1014A0000020ADF816004720ADF8140040F2E730F8
:1014B000ADF8180000208DF81C0005A91548FFF7AD
:1014C00027FC01211348FFF7A1FB01211148FFF779
:1014D000B5FB6020ADF804000120ADF80600ADF8C2
:1014E00008000020ADF80C00ADF80E00ADF80A00C1
:1014F00001A90848FFF7BEFB01210648FFF792FB50
:1015000001210448FFF7A6FB09B000BD0008014017
:10151000000C0140002C014086B0FFF797FF31E03E
:10152000FFF73AFA0546FEF7CBFF04461649FEF7E9
:101530000DFE04900498FFF719F88046134A144BE7
:10154000FEF7DDFECDE9000100F02CF80646002292
:10155000104BFEF72DFE044600220F4BFEF7CFFE88
:101560008246FFF716F803900C490398FEF7EEFD4C
:101570000446FEF7C8FF80B2029009480299FFF7BF
:10158000C5FB00BFCCE700006F12833A1F85EB510B
:10159000B81E19400000F03F0000E03F00007A4410
:1015A000002C014000B5254B21F0004287B09A4243
:1015B00003DC0022134600922BE0214B9A4208D113
:1015C00040B94FF00100FFF73BFFFFF71AFF07B0EC
:1015D00000BD03DBFFF712FF07B000BD02AAFFF753
:1015E000FFFB10F003014FF001000DD0012914D0D2
:1015F00002291AD00DF1080C9CE80F00FFF7B4FD8A
:1016000007B081F0004100BD0DF1080C00909CE88E
:101610000F00FFF77DFE07B000BD0DF1080C9CE840
:101620000F00FFF7A1FD07B000BD0DF1080C009001
:101630009CE80F00FFF76CFEE2E70000FB21E93FAA
:101640000000F07F000000004C5555555555A53F52
:101650007751C1166CC156BF9015CB19A001FA3E47
:10166000AD529C804F7E92BEC4B1B4BD9EEE213E71
:10167000D43888BEE9FAA8BD00004054FB21F93FE8
:101680003163621A61B4D03D0000601A61B4D03D8C
:101690007370032E8A19A33B0000002E8A19A33B06
:1016A000C14920259A837B3900000000000000001A
:1016B0006E83F9A22915444ED15727FCC0DD34F5BD
:1016C000999562DB4190433CAB6351FE61C5BBDE43
:1016D0003A6E24B7E0D24D42EA2E49061C92D10957
:1016E0001CEB1DFE3EA729B1F53582E88444BB2ED4
:1016F00026709CE9417E5FB439D69139F439538321
:101700008B5F849C3B28F9BDFF97F81F0F9805DE7F
:101710008B112FEF1F6D0A5ACF7E366DB709CB277D
:10172000663F464F2DEA5F9EC7BA27757BF1E5EB12
:10173000F739073DEA92528AB15FFB6B085D8D1F56
:10174000A6F810111111813FD561C119A0012ABF5E
:101750007DFEB157E31DC73EEB9C2B8AE6E55ABEE2
:101760007CD5CF5A3AD9E53D881700080000002003
:101770002400000020140008AC17000824000020FA
:1017800004100000301400080000000001020304EF
:10179000010203040607080902040608000000000D
:0C17A0000000000000000000000000003D
:04000005080000ED02
:00000001FF
