:020000040800F2
:1000000050100020050100081B0400089D03000893
:10001000A103000871010008A50500080000000008
:100020000000000000000000000000004104000883
:1000300075010008000000001D0400082D050008DF
:100040001F0100081F0100081F0100081F01000810
:100050001F0100081F0100081F0100081F01000800
:100060001F0100081F0100081F0100081F010008F0
:100070001F0100081F0100081F0100081F010008E0
:100080001F0100081F0100081F0100081F010008D0
:100090001F0100081F0100081F0100081F010008C0
:1000A0001F0100081F0100081F0100081F010008B0
:1000B0001F0100081F0100081F0100081F010008A0
:1000C0001F0100081F0100081F0100081F01000890
:1000D0001F0100081F0100081F0100081F01000880
:1000E0001F0100081F0100081F010008DFF810D0E1
:1000F00000F02CF80048004701070008AFF300802B
:10010000501000200648804706480047FEE7FEE7FB
:10011000FEE7FEE7FEE7FEE7FEE7FEE7FEE7FEE7B7
:1001200045050008ED000008D2B201E000F8012BFF
:10013000491EFBD270470022F6E710B513460A4667
:1001400004461946FFF7F0FF204610BD064C074D48
:1001500006E0E06840F0010394E807009847103497
:10016000AC42F6D3FFF7C6FF1007000830070008BF
:1001700000BFFEE77047000070B504460D460DB1A4
:10018000012000E0002006460F48844204D1314699
:10019000042000F045F916E00C48844204D13146B1
:1001A000082000F03DF90EE00948844204D13146B0
:1001B000102000F035F906E00648844203D13146AC
:1001C000202000F02DF970BD00080140000C014016
:1001D00000100140001401402DE9F04102460025C5
:1001E0000026002000230024002791F803C00CF013
:1001F0000F0591F803C00CF0100CBCF1000F03D0F8
:1002000091F802C04CEA050591F800C0BCF1000F5E
:1002100031D0146800202BE04FF0010C0CFA00F3F1
:10022000B1F800C00CEA03069E4220D183004FF0D3
:100230000F0C0CFA03F7BC4305FA03FC4CEA040468
:1002400091F803C0BCF1280F06D14FF0010C0CFA55
:1002500000FCC2F814C00AE091F803C0BCF1480FDA
:1002600005D14FF0010C0CFA00FCC2F810C0401C84
:100270000828D1D31460B1F800C0BCF1FF0F34DD01
:10028000546800202EE000F1080C4FF0010808FA35
:100290000CF3B1F800C00CEA03069E4221D18300A2
:1002A0004FF00F0C0CFA03F7BC4305FA03FC4CEAC1
:1002B000040491F803C0BCF1280F05D100F1080C2B
:1002C00008FA0CF8C2F8148091F803C0BCF1480F8A
:1002D00007D100F1080C4FF0010808FA0CF8C2F839
:1002E0001080401C0828CED35460BDE8F081000087
:1002F000F0B50A46002300240021002500F0004646
:10030000B6F1004F02D11D4EF16901E01B4E71683C
:10031000C0F3034583B200F44016B6F5401F08D180
:1003200021F07061154E766826F07066134F7E607E
:1003300012E000F48016B6F5801F06D1032606FAF7
:1003400005F4A14341F0706106E0460D360103FA61
:1003500006F6B14341F0706122B1460D360103FA51
:1003600006F6314300F00046B6F1004F02D1034ECD
:10037000F16101E0014E7160F0BD0000000001403C
:100380000246002093680B400BB1012000E00020E2
:1003900070470AB1016100E04161704700BFFEE7AC
:1003A00000BFFEE738B504460D4628682060A888DF
:1003B000A080A868A060E868E0602869206168699A
:1003C0006061A869A061286A2062E869E061012192
:1003D0002068FFF7D1FEA088ADF8000048208DF816
:1003E000030069462068FFF7F7FEA06910B94FF4D3
:1003F0007A70A061E06908B96420E061206A08B9F8
:10040000C8202062002004F8240F60706060A060A3
:10041000E06020742076243C38BD704770470000AF
:1004200029B1064A92690243044B9A6104E0034AE7
:1004300092698243014B9A617047000000100240AC
:10044000704710B500F002F810BD00000CB5002098
:10045000019000903348006840F4803031490860D2
:1004600000BF3048006800F4003000900198401C44
:100470000190009818B90198B0F5A06FF1D1294802
:10048000006800F4003010B10120009001E000206D
:1004900000900098012843D12348006840F01000E4
:1004A000214908600846006820F0070008600846F7
:1004B000006840F0020008601A4840681949486026
:1004C0000846406848600846406840F480604860DC
:1004D0000846406820F47C1048600846406840F4B4
:1004E000E81048600846006840F08070086000BF6F
:1004F0000C48006800F000700028F9D009484068F6
:1005000020F00300074948600846406840F00200B8
:10051000486000BF0348406800F00C000828F9D18B
:100520000CBD000000100240002002400448036897
:1005300040685A1C40F1000001490A604860704759
:100540000000002010B51348006840F00100114978
:10055000086008464068104908400E49486008464F
:1005600000680E4908400B4908600846006820F4FE
:10057000802008600846406820F4FE0048604FF480
:100580001F008860FFF75DFF4FF0006004490860BE
:1005900010BD0000001002400000FFF8FFFFF6FE53
:1005A00008ED00E000BFFEE702E008C8121F08C126
:1005B000002AFAD170477047002001E001C1121FE4
:1005C000002AFBD17047000010B50446012C10D161
:1005D00041030848FFF7D4FE012805D1002241035A
:1005E0000448FFF7D6FE04E0012251030148FFF75B
:1005F000D0FE10BD0010014000B589B0242168462E
:10060000FFF799FD064800900120ADF80400054869
:10061000049069460448FFF7C5FE09B000BD00001C
:1006200000080140C90500080C00002008B50121A0
:100630001020FFF7F5FE002000904FF40050ADF8B9
:10064000000014208DF8030002208DF80200694696
:100650000148FFF7C1FD08BD0010014008B50121A8
:100660000846FFF7DDFE01210846FFF741FE0020A6
:10067000009001210820FFF7D3FE0820ADF800000C
:1006800018208DF8030002208DF8020069461A48F0
:10069000FFF7A2FD01210820FFF7C2FE1020ADF8F0
:1006A000000048208DF8030069461348FFF794FDC9
:1006B00001210820FFF7B4FE2020ADF8000018202B
:1006C0008DF8030002208DF8020069460A48FFF702
:1006D00083FD01210420FFF7A3FE4FF40040ADF895
:1006E000000010208DF8030002208DF802006946FA
:1006F0000248FFF771FD08BD000C014000080140F1
:10070000FFF7ACFFFFF792FFFFF776FF00BFFEE7B2
:1007100030070008000000200C000000A8050008B9
:100720003C0700080C00002044100000B805000839
:0C073000000000000000000000000000BD
:04000005080000ED02
:00000001FF
